{
  "abi": [
    {
      "type": "function",
      "name": "mint",
      "inputs": [
        {
          "name": "poolAddress",
          "type": "address",
          "internalType": "address"
        },
        {
          "name": "lowerTick",
          "type": "int24",
          "internalType": "int24"
        },
        {
          "name": "upperTick",
          "type": "int24",
          "internalType": "int24"
        },
        {
          "name": "liquidity",
          "type": "uint128",
          "internalType": "uint128"
        },
        {
          "name": "data",
          "type": "bytes",
          "internalType": "bytes"
        }
      ],
      "outputs": [],
      "stateMutability": "nonpayable"
    },
    {
      "type": "function",
      "name": "swap",
      "inputs": [
        {
          "name": "poolAddress",
          "type": "address",
          "internalType": "address"
        },
        {
          "name": "data",
          "type": "bytes",
          "internalType": "bytes"
        }
      ],
      "outputs": [],
      "stateMutability": "nonpayable"
    },
    {
      "type": "function",
      "name": "uniswapV3MintCallback",
      "inputs": [
        {
          "name": "amount0",
          "type": "uint256",
          "internalType": "uint256"
        },
        {
          "name": "amount1",
          "type": "uint256",
          "internalType": "uint256"
        },
        {
          "name": "data",
          "type": "bytes",
          "internalType": "bytes"
        }
      ],
      "outputs": [],
      "stateMutability": "nonpayable"
    },
    {
      "type": "function",
      "name": "uniswapV3SwapCallback",
      "inputs": [
        {
          "name": "amount0",
          "type": "int256",
          "internalType": "int256"
        },
        {
          "name": "amount1",
          "type": "int256",
          "internalType": "int256"
        },
        {
          "name": "data",
          "type": "bytes",
          "internalType": "bytes"
        }
      ],
      "outputs": [],
      "stateMutability": "nonpayable"
    }
  ],
  "bytecode": {
    "object": "0x6080604052348015600f57600080fd5b506106968061001f6000396000f3fe608060405234801561001057600080fd5b506004361061004c5760003560e01c80633c8a7d8d14610051578063d348799714610066578063e354733514610079578063fa461e331461008c575b600080fd5b61006461005f3660046103be565b61009f565b005b610064610074366004610452565b610121565b6100646100873660046104a5565b61020b565b61006461009a366004610452565b610284565b604051633c8a7d8d60e01b81526001600160a01b03871690633c8a7d8d906100d590339089908990899089908990600401610521565b60408051808303816000875af11580156100f3573d6000803e3d6000fd5b505050506040513d601f19601f820116820180604052508101906101179190610570565b5050505050505050565b600061012f82840184610594565b805160408083015190516323b872dd60e01b81529293506001600160a01b03909116916323b872dd916101689133908a9060040161060e565b600060405180830381600087803b15801561018257600080fd5b505af1158015610196573d6000803e3d6000fd5b5050505080602001516001600160a01b03166323b872dd826040015133876040518463ffffffff1660e01b81526004016101d29392919061060e565b600060405180830381600087803b1580156101ec57600080fd5b505af1158015610200573d6000803e3d6000fd5b505050505050505050565b60405163e354733560e01b81526001600160a01b0384169063e35473359061023b90339086908690600401610632565b60408051808303816000875af1158015610259573d6000803e3d6000fd5b505050506040513d601f19601f8201168201806040525081019061027d9190610570565b5050505050565b600061029282840184610594565b9050600085131561030657805160408083015190516323b872dd60e01b81526001600160a01b03909216916323b872dd916102d39133908a9060040161060e565b600060405180830381600087803b1580156102ed57600080fd5b505af1158015610301573d6000803e3d6000fd5b505050505b600084131561027d5780602001516001600160a01b03166323b872dd826040015133876040518463ffffffff1660e01b81526004016101d29392919061060e565b80356001600160a01b038116811461035e57600080fd5b919050565b8035600281900b811461035e57600080fd5b60008083601f84011261038757600080fd5b50813567ffffffffffffffff81111561039f57600080fd5b6020830191508360208285010111156103b757600080fd5b9250929050565b60008060008060008060a087890312156103d757600080fd5b6103e087610347565b95506103ee60208801610363565b94506103fc60408801610363565b935060608701356001600160801b038116811461041857600080fd5b9250608087013567ffffffffffffffff81111561043457600080fd5b61044089828a01610375565b979a9699509497509295939492505050565b6000806000806060858703121561046857600080fd5b8435935060208501359250604085013567ffffffffffffffff81111561048d57600080fd5b61049987828801610375565b95989497509550505050565b6000806000604084860312156104ba57600080fd5b6104c384610347565b9250602084013567ffffffffffffffff8111156104df57600080fd5b6104eb86828701610375565b9497909650939450505050565b81835281816020850137506000828201602090810191909152601f909101601f19169091010190565b60018060a01b03871681528560020b60208201528460020b60408201526001600160801b038416606082015260a06080820152600061056460a0830184866104f8565b98975050505050505050565b6000806040838503121561058357600080fd5b505080516020909101519092909150565b6000606082840312156105a657600080fd5b6040516060810181811067ffffffffffffffff821117156105d757634e487b7160e01b600052604160045260246000fd5b6040526105e383610347565b81526105f160208401610347565b602082015261060260408401610347565b60408201529392505050565b6001600160a01b039384168152919092166020820152604081019190915260600190565b6001600160a01b038416815260406020820181905260009061065790830184866104f8565b9594505050505056fea2646970667358221220accbdafac4775161a48034c88120b7b944a0551e7913fd8cb1804709ff532cff64736f6c63430008190033",
    "linkReferences": {}
  },
  "methodIdentifiers": {
    "mint(address,int24,int24,uint128,bytes)": "3c8a7d8d",
    "swap(address,bytes)": "e3547335",
    "uniswapV3MintCallback(uint256,uint256,bytes)": "d3487997",
    "uniswapV3SwapCallback(int256,int256,bytes)": "fa461e33"
  },
  "id": 21
}