{"abi":[{"type":"function","name":"mint","inputs":[{"name":"poolAddress","type":"address","internalType":"address"},{"name":"lowerTick","type":"int24","internalType":"int24"},{"name":"upperTick","type":"int24","internalType":"int24"},{"name":"liquidity","type":"uint128","internalType":"uint128"},{"name":"data","type":"bytes","internalType":"bytes"}],"outputs":[],"stateMutability":"nonpayable"},{"type":"function","name":"swap","inputs":[{"name":"poolAddress","type":"address","internalType":"address"},{"name":"zeroForOne","type":"bool","internalType":"bool"},{"name":"amountSpecified","type":"uint256","internalType":"uint256"},{"name":"data","type":"bytes","internalType":"bytes"}],"outputs":[],"stateMutability":"nonpayable"},{"type":"function","name":"uniswapV3MintCallback","inputs":[{"name":"amount0","type":"uint256","internalType":"uint256"},{"name":"amount1","type":"uint256","internalType":"uint256"},{"name":"data","type":"bytes","internalType":"bytes"}],"outputs":[],"stateMutability":"nonpayable"},{"type":"function","name":"uniswapV3SwapCallback","inputs":[{"name":"amount0","type":"int256","internalType":"int256"},{"name":"amount1","type":"int256","internalType":"int256"},{"name":"data","type":"bytes","internalType":"bytes"}],"outputs":[],"stateMutability":"nonpayable"}],"bytecode":{"object":"0x6080604052348015600f57600080fd5b506106d38061001f6000396000f3fe608060405234801561001057600080fd5b506004361061004c5760003560e01c80633c8a7d8d1461005157806380c2c6ef14610066578063d348799714610079578063fa461e331461008c575b600080fd5b61006461005f3660046103cb565b61009f565b005b61006461007436600461045f565b610121565b6100646100873660046104d5565b6101a0565b61006461009a3660046104d5565b61028a565b604051633c8a7d8d60e01b81526001600160a01b03871690633c8a7d8d906100d590339089908990899089908990600401610551565b60408051808303816000875af11580156100f3573d6000803e3d6000fd5b505050506040513d601f19601f8201168201806040525081019061011791906105a0565b5050505050505050565b6040516380c2c6ef60e01b81526001600160a01b038616906380c2c6ef9061015590339088908890889088906004016105c4565b60408051808303816000875af1158015610173573d6000803e3d6000fd5b505050506040513d601f19601f8201168201806040525081019061019791906105a0565b50505050505050565b60006101ae828401846105ff565b805160408083015190516323b872dd60e01b81529293506001600160a01b03909116916323b872dd916101e79133908a90600401610679565b600060405180830381600087803b15801561020157600080fd5b505af1158015610215573d6000803e3d6000fd5b5050505080602001516001600160a01b03166323b872dd826040015133876040518463ffffffff1660e01b815260040161025193929190610679565b600060405180830381600087803b15801561026b57600080fd5b505af115801561027f573d6000803e3d6000fd5b505050505050505050565b6000610298828401846105ff565b9050600085131561030c57805160408083015190516323b872dd60e01b81526001600160a01b03909216916323b872dd916102d99133908a90600401610679565b600060405180830381600087803b1580156102f357600080fd5b505af1158015610307573d6000803e3d6000fd5b505050505b600084131561034d5780602001516001600160a01b03166323b872dd826040015133876040518463ffffffff1660e01b815260040161025193929190610679565b5050505050565b80356001600160a01b038116811461036b57600080fd5b919050565b8035600281900b811461036b57600080fd5b60008083601f84011261039457600080fd5b50813567ffffffffffffffff8111156103ac57600080fd5b6020830191508360208285010111156103c457600080fd5b9250929050565b60008060008060008060a087890312156103e457600080fd5b6103ed87610354565b95506103fb60208801610370565b945061040960408801610370565b935060608701356001600160801b038116811461042557600080fd5b9250608087013567ffffffffffffffff81111561044157600080fd5b61044d89828a01610382565b979a9699509497509295939492505050565b60008060008060006080868803121561047757600080fd5b61048086610354565b94506020860135801515811461049557600080fd5b935060408601359250606086013567ffffffffffffffff8111156104b857600080fd5b6104c488828901610382565b969995985093965092949392505050565b600080600080606085870312156104eb57600080fd5b8435935060208501359250604085013567ffffffffffffffff81111561051057600080fd5b61051c87828801610382565b95989497509550505050565b81835281816020850137506000828201602090810191909152601f909101601f19169091010190565b60018060a01b03871681528560020b60208201528460020b60408201526001600160801b038416606082015260a06080820152600061059460a083018486610528565b98975050505050505050565b600080604083850312156105b357600080fd5b505080516020909101519092909150565b60018060a01b038616815284151560208201528360408201526080606082015260006105f4608083018486610528565b979650505050505050565b60006060828403121561061157600080fd5b6040516060810181811067ffffffffffffffff8211171561064257634e487b7160e01b600052604160045260246000fd5b60405261064e83610354565b815261065c60208401610354565b602082015261066d60408401610354565b60408201529392505050565b6001600160a01b03938416815291909216602082015260408101919091526060019056fea2646970667358221220b112e9f53b09aeb31df07cf24bc401b7cc4abb5d5019ac920f0ecd91b4b388c564736f6c63430008190033","linkReferences":{}},"methodIdentifiers":{"mint(address,int24,int24,uint128,bytes)":"3c8a7d8d","swap(address,bool,uint256,bytes)":"80c2c6ef","uniswapV3MintCallback(uint256,uint256,bytes)":"d3487997","uniswapV3SwapCallback(int256,int256,bytes)":"fa461e33"},"id":22}