{"abi":[{"type":"function","name":"quote","inputs":[{"name":"params","type":"tuple","internalType":"struct UniswapV3Quoter.QuoteParams","components":[{"name":"pool","type":"address","internalType":"address"},{"name":"amountIn","type":"uint256","internalType":"uint256"},{"name":"zeroForOne","type":"bool","internalType":"bool"}]}],"outputs":[{"name":"amountOut","type":"uint256","internalType":"uint256"},{"name":"sqrtPriceX96After","type":"uint160","internalType":"uint160"},{"name":"tickAfter","type":"int24","internalType":"int24"}],"stateMutability":"nonpayable"},{"type":"function","name":"uniswapV3SwapCallback","inputs":[{"name":"amount0Delta","type":"int256","internalType":"int256"},{"name":"amount1Delta","type":"int256","internalType":"int256"},{"name":"data","type":"bytes","internalType":"bytes"}],"outputs":[],"stateMutability":"view"}],"bytecode":{"object":"0x6080604052348015600f57600080fd5b506105658061001f6000396000f3fe608060405234801561001057600080fd5b50600436106100365760003560e01c80635af288b11461003b578063fa461e3314610078575b600080fd5b61004e6100493660046102ae565b61008d565b604080519384526001600160a01b03909216602084015260020b9082015260600160405180910390f35b61008b61008636600461031c565b61019a565b005b600080600083600001516001600160a01b03166380c2c6ef308660400151876020015188600001516040516020016100d491906001600160a01b0391909116815260200190565b6040516020818303038152906040526040518563ffffffff1660e01b815260040161010294939291906103c4565b60408051808303816000875af192505050801561013c575060408051601f3d908101601f1916820190925261013991810190610433565b60015b610190573d80801561016a576040519150601f19603f3d011682016040523d82523d6000602084013e61016f565b606091505b5080806020019051810190610184919061046e565b93509350935050610193565b50505b9193909250565b6000818060200190518101906101b091906104ac565b905060008085136101c9576101c4856104d0565b6101d2565b6101d2846104d0565b9050600080836001600160a01b0316633850c7bd6040518163ffffffff1660e01b81526004016040805180830381865afa158015610214573d6000803e3d6000fd5b505050506040513d601f19601f8201168201806040525081019061023891906104fa565b604051858152602081018290529193509150606081fd5b634e487b7160e01b600052604160045260246000fd5b604051601f8201601f1916810167ffffffffffffffff8111828210171561028e5761028e61024f565b604052919050565b6001600160a01b03811681146102ab57600080fd5b50565b6000606082840312156102c057600080fd5b6040516060810181811067ffffffffffffffff821117156102e3576102e361024f565b60405282356102f181610296565b8152602083810135908201526040830135801515811461031057600080fd5b60408201529392505050565b60008060006060848603121561033157600080fd5b833592506020808501359250604085013567ffffffffffffffff8082111561035857600080fd5b818701915087601f83011261036c57600080fd5b81358181111561037e5761037e61024f565b610390601f8201601f19168501610265565b915080825288848285010111156103a657600080fd5b80848401858401376000848284010152508093505050509250925092565b60018060a01b038516815260006020851515602084015284604084015260806060840152835180608085015260005b8181101561040f5785810183015185820160a0015282016103f3565b50600060a0828601015260a0601f19601f8301168501019250505095945050505050565b6000806040838503121561044657600080fd5b505080516020909101519092909150565b8051600281900b811461046957600080fd5b919050565b60008060006060848603121561048357600080fd5b83519250602084015161049581610296565b91506104a360408501610457565b90509250925092565b6000602082840312156104be57600080fd5b81516104c981610296565b9392505050565b6000600160ff1b82016104f357634e487b7160e01b600052601160045260246000fd5b5060000390565b6000806040838503121561050d57600080fd5b825161051881610296565b915061052660208401610457565b9050925092905056fea2646970667358221220fbec7f3730e4508faecf0c105f993efe82971ae0defe2870dc8dc5de2ff5d94e64736f6c63430008190033","linkReferences":{}},"methodIdentifiers":{"quote((address,uint256,bool))":"5af288b1","uniswapV3SwapCallback(int256,int256,bytes)":"fa461e33"},"id":24}