{"abi":[{"type":"constructor","inputs":[{"name":"_token0","type":"address","internalType":"address"},{"name":"_token1","type":"address","internalType":"address"},{"name":"_sqrtPriceX96","type":"uint160","internalType":"uint160"},{"name":"_tick","type":"int24","internalType":"int24"}],"stateMutability":"nonpayable"},{"type":"function","name":"liquidity","inputs":[],"outputs":[{"name":"","type":"uint128","internalType":"uint128"}],"stateMutability":"view"},{"type":"function","name":"mint","inputs":[{"name":"owner","type":"address","internalType":"address"},{"name":"lowerTick","type":"int24","internalType":"int24"},{"name":"upperTick","type":"int24","internalType":"int24"},{"name":"amount","type":"uint128","internalType":"uint128"},{"name":"data","type":"bytes","internalType":"bytes"}],"outputs":[{"name":"amount0","type":"uint256","internalType":"uint256"},{"name":"amount1","type":"uint256","internalType":"uint256"}],"stateMutability":"nonpayable"},{"type":"function","name":"positions","inputs":[{"name":"","type":"bytes32","internalType":"bytes32"}],"outputs":[{"name":"liquidity","type":"uint128","internalType":"uint128"}],"stateMutability":"view"},{"type":"function","name":"slot0","inputs":[],"outputs":[{"name":"sqrtPriceX96","type":"uint160","internalType":"uint160"},{"name":"tick","type":"int24","internalType":"int24"}],"stateMutability":"view"},{"type":"function","name":"swap","inputs":[{"name":"receipient","type":"address","internalType":"address"},{"name":"zeroForOne","type":"bool","internalType":"bool"},{"name":"amountSpecified","type":"uint256","internalType":"uint256"},{"name":"data","type":"bytes","internalType":"bytes"}],"outputs":[{"name":"amount0","type":"int256","internalType":"int256"},{"name":"amount1","type":"int256","internalType":"int256"}],"stateMutability":"nonpayable"},{"type":"function","name":"tickBitmap","inputs":[{"name":"","type":"int16","internalType":"int16"}],"outputs":[{"name":"","type":"uint256","internalType":"uint256"}],"stateMutability":"view"},{"type":"function","name":"ticks","inputs":[{"name":"","type":"int24","internalType":"int24"}],"outputs":[{"name":"initialized","type":"bool","internalType":"bool"},{"name":"liqudity","type":"uint128","internalType":"uint128"}],"stateMutability":"view"},{"type":"function","name":"token0","inputs":[],"outputs":[{"name":"","type":"address","internalType":"address"}],"stateMutability":"view"},{"type":"function","name":"token1","inputs":[],"outputs":[{"name":"","type":"address","internalType":"address"}],"stateMutability":"view"},{"type":"event","name":"Mint","inputs":[{"name":"sender","type":"address","indexed":false,"internalType":"address"},{"name":"owner","type":"address","indexed":true,"internalType":"address"},{"name":"lowerTick","type":"int24","indexed":true,"internalType":"int24"},{"name":"upperTick","type":"int24","indexed":true,"internalType":"int24"},{"name":"amount","type":"uint128","indexed":false,"internalType":"uint128"},{"name":"amount0","type":"uint256","indexed":false,"internalType":"uint256"},{"name":"amount1","type":"uint256","indexed":false,"internalType":"uint256"}],"anonymous":false},{"type":"event","name":"Swap","inputs":[{"name":"sender","type":"address","indexed":true,"internalType":"address"},{"name":"receipient","type":"address","indexed":true,"internalType":"address"},{"name":"amount0","type":"int256","indexed":false,"internalType":"int256"},{"name":"amount1","type":"int256","indexed":false,"internalType":"int256"},{"name":"sqrtPriceX96","type":"uint160","indexed":false,"internalType":"uint160"},{"name":"liquidity","type":"uint128","indexed":false,"internalType":"uint128"},{"name":"tick","type":"int24","indexed":true,"internalType":"int24"}],"anonymous":false},{"type":"error","name":"InsufficientInputAmount","inputs":[]},{"type":"error","name":"InvertTickRange","inputs":[]},{"type":"error","name":"PRBMath_MulDiv_Overflow","inputs":[{"name":"x","type":"uint256","internalType":"uint256"},{"name":"y","type":"uint256","internalType":"uint256"},{"name":"denominator","type":"uint256","internalType":"uint256"}]},{"type":"error","name":"ZeroLiquidity","inputs":[]}],"bytecode":{"object":"0x60c060405234801561001057600080fd5b5060405161204938038061204983398101604081905261002f916100a0565b6001600160a01b0393841660805291831660a052604080518082019091529216808352600282900b6020909301929092526000805462ffffff909216600160a01b026001600160b81b0319909216909217179055610106565b6001600160a01b038116811461009d57600080fd5b50565b600080600080608085870312156100b657600080fd5b84516100c181610088565b60208601519094506100d281610088565b60408601519093506100e381610088565b8092505060608501518060020b81146100fb57600080fd5b939692955090935050565b60805160a051611f03610146600039600081816101df015281816107610152610c10015260008181609d015281816108970152610b7d0152611f036000f3fe608060405234801561001057600080fd5b50600436106100935760003560e01c8063514ea4bf11610066578063514ea4bf146101705780635339c2961461019957806380c2c6ef146101c7578063d21220a7146101da578063f30dba931461020157600080fd5b80630dfe1681146100985780631a686502146100dc5780633850c7bd146101075780633c8a7d8d14610148575b600080fd5b6100bf7f000000000000000000000000000000000000000000000000000000000000000081565b6040516001600160a01b0390911681526020015b60405180910390f35b6001546100ef906001600160801b031681565b6040516001600160801b0390911681526020016100d3565b600054610126906001600160a01b03811690600160a01b900460020b82565b604080516001600160a01b03909316835260029190910b6020830152016100d3565b61015b610156366004611a22565b610253565b604080519283526020830191909152016100d3565b6100ef61017e366004611ab6565b6003602052600090815260409020546001600160801b031681565b6101b96101a7366004611acf565b60046020526000908152604090205481565b6040519081526020016100d3565b61015b6101d5366004611af2565b61055e565b6100bf7f000000000000000000000000000000000000000000000000000000000000000081565b61023461020f366004611b68565b60026020526000908152604090205460ff81169061010090046001600160801b031682565b6040805192151583526001600160801b039091166020830152016100d3565b6000808560020b8760020b1215806102725750620d89e719600288900b125b8061028e5750610285620d89e719611b99565b60020b8660020b135b156102ac57604051637731b63160e01b815260040160405180910390fd5b846001600160801b03166000036102d657604051630200e8a960e31b815260040160405180910390fd5b60006102e460028988610a3d565b905060006102f460028989610a3d565b905081156103095761030960048a6001610acc565b801561031c5761031c6004896001610acc565b6040805160608c901b6bffffffffffffffffffffffff191660208083019190915260e88c811b60348401528b901b60378301528251601a818403018152603a9092018352815191810191909120600090815260039091522061037e8189610b24565b60018054670ddd13f10b84ee00965069010f0cf064dd5920000095508991906000906103b49084906001600160801b0316611bbb565b92506101000a8154816001600160801b0302191690836001600160801b0316021790555060008060008711156103ef576103ec610b65565b91505b8515610400576103fd610bf8565b90505b60405163d348799760e01b8152339063d348799790610429908a908a908e908e90600401611c0b565b600060405180830381600087803b15801561044357600080fd5b505af1158015610457573d6000803e3d6000fd5b5050505060008711801561047a575061046e610b65565b6104788884611c2b565b115b156104985760405163098fb56160e01b815260040160405180910390fd5b6000861180156104b757506104ab610bf8565b6104b58783611c2b565b115b156104d55760405163098fb56160e01b815260040160405180910390fd5b8a60020b8c60020b8e6001600160a01b03167f7a53080ba414158be7ec69b987b5fb7d07dee101fe85488f0853ae16239d0bde338e8c8c60405161054694939291906001600160a01b039490941684526001600160801b039290921660208401526040830152606082015260800190565b60405180910390a45050505050965096945050505050565b604080518082018252600080546001600160a01b038082168452600160a01b909104600290810b602080860191825286516080810188528a8152908101859052855190931695830195909552935190930b6060840152918291905b8051156106b2576040805160a08101825260008082526020820181905291810182905260608101829052608081019190915260408201516001600160a01b03168152606082015161060f9060049060018c610c47565b5060020b6020820181905261062390610def565b6001600160a01b0316604082018190528151600154845161064e93916001600160801b031690611216565b6080840152606083019081526001600160a01b039091166040840152518251839061067a908390611c44565b9052506080810151602083018051610693908390611c2b565b90525060408201516106a490611266565b60020b6060830152506105b9565b816020015160020b816060015160020b1461070e5760408101516060820151600080546001600160a01b039093166001600160a01b031962ffffff909316600160a01b02929092166001600160b81b0319909316929092171790555b8761073257806020015161072190611c57565b815161072d9089611c44565b61074c565b805161073e9088611c44565b816020015161074c90611c57565b9094509250871561088d576001600160a01b037f00000000000000000000000000000000000000000000000000000000000000001663a9059cbb8a61079086611c57565b6040516001600160e01b031960e085901b1681526001600160a01b0390921660048301526024820152604401600060405180830381600087803b1580156107d657600080fd5b505af11580156107ea573d6000803e3d6000fd5b5050505060006107f8610b65565b60405163fa461e3360e01b8152909150339063fa461e339061082490889088908c908c90600401611c0b565b600060405180830381600087803b15801561083e57600080fd5b505af1158015610852573d6000803e3d6000fd5b5050505061085e610b65565b6108688683611c2b565b11156108875760405163098fb56160e01b815260040160405180910390fd5b506109bf565b6001600160a01b037f00000000000000000000000000000000000000000000000000000000000000001663a9059cbb8a6108c687611c57565b6040516001600160e01b031960e085901b1681526001600160a01b0390921660048301526024820152604401600060405180830381600087803b15801561090c57600080fd5b505af1158015610920573d6000803e3d6000fd5b50505050600061092e610bf8565b60405163fa461e3360e01b8152909150339063fa461e339061095a90889088908c908c90600401611c0b565b600060405180830381600087803b15801561097457600080fd5b505af1158015610988573d6000803e3d6000fd5b50505050610994610bf8565b61099e8583611c2b565b11156109bd5760405163098fb56160e01b815260040160405180910390fd5b505b60005460015460408051878152602081018790526001600160a01b03808516828401526001600160801b0390931660608201529051600160a01b90930460020b92918c169133917fc42079f94a6350d7e6235f29174924f928cc2ac818eb64fed8004e115fbcca67919081900360800190a450509550959350505050565b600282900b6000908152602084905260408120805461010090046001600160801b031682610a6b8583611bbb565b6001600160801b0380821615908416801591909114159550909150600003610a9957825460ff191660011783555b82546001600160801b039091166101000270ffffffffffffffffffffffffffffffff001990911617909155509392505050565b610ad68183611c89565b60020b15610ae357600080fd5b600080610af8610af38486611cab565b6115a0565b600191820b60009081526020979097526040909620805460ff9097169190911b90951890945550505050565b81546001600160801b03166000610b3b8383611bbb565b84546fffffffffffffffffffffffffffffffff19166001600160801b039190911617909355505050565b6040516370a0823160e01b81523060048201526000907f00000000000000000000000000000000000000000000000000000000000000006001600160a01b0316906370a08231906024015b6020604051808303816000875af1158015610bcf573d6000803e3d6000fd5b505050506040513d601f19601f82011682018060405250810190610bf39190611ce5565b905090565b6040516370a0823160e01b81523060048201526000907f00000000000000000000000000000000000000000000000000000000000000006001600160a01b0316906370a0823190602401610bb0565b60008080610c558587611cab565b905060008660020b128015610c755750610c6f8587611c89565b60020b15155b15610c885780610c8481611cfe565b9150505b8315610d3b57600080610c9a836115a0565b9150915060008160ff166001901b600183610cb59190611d21565b60ff16610cc29190611c2b565b600184810b600090815260208d90526040902054911b908116801515965090915085610d055788610cf660ff851687611d3a565b610d009190611d5f565b610d30565b88610d0f826115bd565b610d199085611d21565b610d269060ff1687611d3a565b610d309190611d5f565b965050505050610de5565b600080610d4c610af3846001611d7f565b90925090506000610d64600160ff841681901b611c44565b600184900b600090815260208c905260409020549019908116801515965090915085610db25788610d968460ff611d21565b610da39060ff1687611d3a565b610dad9190611d5f565b610dde565b8883610dbd836115bd565b610dc79190611d21565b610dd49060ff1687611d3a565b610dde9190611d5f565b9650505050505b5094509492505050565b60008060008360020b12610e06578260020b610e13565b8260020b610e1390611c57565b9050610e22620d89e719611b99565b62ffffff16811115610e5f5760405162461bcd60e51b81526020600482015260016024820152601560fa1b60448201526064015b60405180910390fd5b600081600116600003610e7657600160801b610e88565b6ffffcb933bd6fad37aa2d162d1a5940015b70ffffffffffffffffffffffffffffffffff1690506002821615610ec7576080610ec2826ffff97272373d413259a46990580e213a611da4565b901c90505b6004821615610ef1576080610eec826ffff2e50f5f656932ef12357cf3c7fdcc611da4565b901c90505b6008821615610f1b576080610f16826fffe5caca7e10e4e61c3624eaa0941cd0611da4565b901c90505b6010821615610f45576080610f40826fffcb9843d60f6159c9db58835c926644611da4565b901c90505b6020821615610f6f576080610f6a826fff973b41fa98c081472e6896dfb254c0611da4565b901c90505b6040821615610f99576080610f94826fff2ea16466c96a3843ec78b326b52861611da4565b901c90505b6080821615610fc3576080610fbe826ffe5dee046a99a2a811c461f1969c3053611da4565b901c90505b610100821615610fee576080610fe9826ffcbe86c7900a88aedcffc83b479aa3a4611da4565b901c90505b610200821615611019576080611014826ff987a7253ac413176f2b074cf7815e54611da4565b901c90505b61040082161561104457608061103f826ff3392b0822b70005940c7a398e4b70f3611da4565b901c90505b61080082161561106f57608061106a826fe7159475a2c29b7443b29c7fa6e889d9611da4565b901c90505b61100082161561109a576080611095826fd097f3bdfd2022b8845ad8f792aa5825611da4565b901c90505b6120008216156110c55760806110c0826fa9f746462d870fdf8a65dc1f90e061e5611da4565b901c90505b6140008216156110f05760806110eb826f70d869a156d2a1b890bb3df62baf32f7611da4565b901c90505b61800082161561111b576080611116826f31be135f97d08fd981231505542fcfa6611da4565b901c90505b62010000821615611147576080611142826f09aa508b5b7a84e1c677de54f3e99bc9611da4565b901c90505b6202000082161561117257608061116d826e5d6af8dedb81196699c329225ee604611da4565b901c90505b6204000082161561119c576080611197826d2216e584f5fa1ea926041bedfe98611da4565b901c90505b620800008216156111c45760806111bf826b048a170391f7dc42444e8fa2611da4565b901c90505b60008460020b13156111df576111dc81600019611dbb565b90505b6111ee64010000000082611dcf565b156111fa5760016111fd565b60005b61120e9060ff16602083901c611c2b565b949350505050565b600080806001600160a01b038087169088161015611236888787846116b5565b93506112438885886116e0565b9250611250888588611764565b91508061125b579091905b509450945094915050565b60006401000276a36001600160a01b038316108015906112a2575073fffd8963efd1fc6a506488495d951d5263988d266001600160a01b038316105b6112d25760405162461bcd60e51b81526020600482015260016024820152602960f91b6044820152606401610e56565b640100000000600160c01b03602083901b166001600160801b03811160071b81811c67ffffffffffffffff811160061b90811c63ffffffff811160051b90811c61ffff811160041b90811c60ff8111600390811b91821c600f811160021b90811c918211600190811b92831c9790881196179094179092171790911717176080811061136d57611363607f82611c44565b83901c915061137e565b61137881607f611c44565b83901b91505b6000604061138d608084611de3565b901b9050828302607f1c92508260801c80603f1b8217915083811c935050828302607f1c92508260801c80603e1b8217915083811c935050828302607f1c92508260801c80603d1b8217915083811c935050828302607f1c92508260801c80603c1b8217915083811c935050828302607f1c92508260801c80603b1b8217915083811c935050828302607f1c92508260801c80603a1b8217915083811c935050828302607f1c92508260801c8060391b8217915083811c935050828302607f1c92508260801c8060381b8217915083811c935050828302607f1c92508260801c8060371b8217915083811c935050828302607f1c92508260801c8060361b8217915083811c935050828302607f1c92508260801c8060351b8217915083811c935050828302607f1c92508260801c8060341b8217915083811c935050828302607f1c92508260801c8060331b8217915083811c935050828302607f1c92508260801c8060321b8217915050600081693627a301d71055774c856115109190611e03565b9050600060806115306f028f6481ab7f045a5af012a19d003aaa84611de3565b901d905060006080611552846fdb2df09e81959a81455e260799a0632f611e33565b901d90508060020b8260020b1461159157886001600160a01b031661157682610def565b6001600160a01b0316111561158b5781611593565b80611593565b815b9998505050505050505050565b600281900b60081d60006115b661010084611c89565b9050915091565b60008082116115cb57600080fd5b600160801b82106115e957608091821c916115e69082611e5b565b90505b68010000000000000000821061160c57604091821c916116099082611e5b565b90505b640100000000821061162b57602091821c916116289082611e5b565b90505b62010000821061164857601091821c916116459082611e5b565b90505b610100821061166457600891821c916116619082611e5b565b90505b6010821061167f57600491821c9161167c9082611e5b565b90505b6004821061169a57600291821c916116979082611e5b565b90505b600282106116b0576116ad600182611e5b565b90505b919050565b6000816116cc576116c78585856117c4565b6116d7565b6116d78585856117ee565b95945050505050565b6000826001600160a01b0316846001600160a01b03161115611700579192915b6000846001600160a01b03161161171657600080fd5b61120e61174f600160601b600160e01b03606085901b166117378787611e74565b6001600160a01b0316866001600160a01b031661189c565b856001600160a01b0316808204910615150190565b6000826001600160a01b0316846001600160a01b03161115611784579192915b6000846001600160a01b03161161179a57600080fd5b61120e6001600160801b0383166117b18686611e74565b6001600160a01b0316600160601b61189c565b60006117dd6001600160801b038416606084901b611dbb565b61120e9085611e94565b9392505050565b6000600160601b600160e01b03606084901b16816118156001600160a01b03871685611da4565b90506001600160a01b03861661182b8583611dbb565b0361186557600061183c8284611c2b565b90508281106118635761185983886001600160a01b03168361189c565b93505050506117e7565b505b611892828561187d6001600160a01b038a1683611dbb565b6118879190611c2b565b808204910615150190565b9695505050505050565b60006118a98484846118dc565b9050600082806118bb576118bb611c73565b84860911156117e75760001981106118d257600080fd5b806116d781611eb4565b60008080600019858709858702925082811083820303915050806000036119165783828161190c5761190c611c73565b04925050506117e7565b83811061194757604051630c740aef60e31b8152600481018790526024810186905260448101859052606401610e56565b60008486880960026001871981018816978890046003810283188082028403028082028403028082028403028082028403028082028403029081029092039091026000889003889004909101858311909403939093029303949094049190911702949350505050565b80356001600160a01b03811681146116b057600080fd5b8035600281900b81146116b057600080fd5b60008083601f8401126119eb57600080fd5b50813567ffffffffffffffff811115611a0357600080fd5b602083019150836020828501011115611a1b57600080fd5b9250929050565b60008060008060008060a08789031215611a3b57600080fd5b611a44876119b0565b9550611a52602088016119c7565b9450611a60604088016119c7565b935060608701356001600160801b0381168114611a7c57600080fd5b9250608087013567ffffffffffffffff811115611a9857600080fd5b611aa489828a016119d9565b979a9699509497509295939492505050565b600060208284031215611ac857600080fd5b5035919050565b600060208284031215611ae157600080fd5b81358060010b81146117e757600080fd5b600080600080600060808688031215611b0a57600080fd5b611b13866119b0565b945060208601358015158114611b2857600080fd5b935060408601359250606086013567ffffffffffffffff811115611b4b57600080fd5b611b57888289016119d9565b969995985093965092949392505050565b600060208284031215611b7a57600080fd5b6117e7826119c7565b634e487b7160e01b600052601160045260246000fd5b60008160020b627fffff198103611bb257611bb2611b83565b60000392915050565b6001600160801b03818116838216019080821115611bdb57611bdb611b83565b5092915050565b81835281816020850137506000828201602090810191909152601f909101601f19169091010190565b848152836020820152606060408201526000611892606083018486611be2565b80820180821115611c3e57611c3e611b83565b92915050565b81810381811115611c3e57611c3e611b83565b6000600160ff1b8201611c6c57611c6c611b83565b5060000390565b634e487b7160e01b600052601260045260246000fd5b60008260020b80611c9c57611c9c611c73565b808360020b0791505092915050565b60008160020b8360020b80611cc257611cc2611c73565b627fffff19821460001982141615611cdc57611cdc611b83565b90059392505050565b600060208284031215611cf757600080fd5b5051919050565b60008160020b627fffff198103611d1757611d17611b83565b6000190192915050565b60ff8281168282160390811115611c3e57611c3e611b83565b600282810b9082900b03627fffff198112627fffff82131715611c3e57611c3e611b83565b60008260020b8260020b028060020b9150808214611bdb57611bdb611b83565b600281810b9083900b01627fffff8113627fffff1982121715611c3e57611c3e611b83565b8082028115828204841417611c3e57611c3e611b83565b600082611dca57611dca611c73565b500490565b600082611dde57611dde611c73565b500690565b8181036000831280158383131683831282161715611bdb57611bdb611b83565b80820260008212600160ff1b84141615611e1f57611e1f611b83565b8181058314821517611c3e57611c3e611b83565b8082018281126000831280158216821582161715611e5357611e53611b83565b505092915050565b60ff8181168382160190811115611c3e57611c3e611b83565b6001600160a01b03828116828216039080821115611bdb57611bdb611b83565b6001600160a01b03818116838216019080821115611bdb57611bdb611b83565b600060018201611ec657611ec6611b83565b506001019056fea264697066735822122042033200e75142d5ed308f7b02731bbf963c46094ba1137fc3f8650775de6c2e64736f6c63430008190033","linkReferences":{}},"methodIdentifiers":{"liquidity()":"1a686502","mint(address,int24,int24,uint128,bytes)":"3c8a7d8d","positions(bytes32)":"514ea4bf","slot0()":"3850c7bd","swap(address,bool,uint256,bytes)":"80c2c6ef","tickBitmap(int16)":"5339c296","ticks(int24)":"f30dba93","token0()":"0dfe1681","token1()":"d21220a7"},"id":23}