{
  "abi": [
    {
      "type": "constructor",
      "inputs": [
        {
          "name": "_token0",
          "type": "address",
          "internalType": "address"
        },
        {
          "name": "_token1",
          "type": "address",
          "internalType": "address"
        },
        {
          "name": "_sqrtPriceX96",
          "type": "uint160",
          "internalType": "uint160"
        },
        {
          "name": "_tick",
          "type": "int24",
          "internalType": "int24"
        }
      ],
      "stateMutability": "nonpayable"
    },
    {
      "type": "function",
      "name": "liquidity",
      "inputs": [],
      "outputs": [
        {
          "name": "",
          "type": "uint128",
          "internalType": "uint128"
        }
      ],
      "stateMutability": "view"
    },
    {
      "type": "function",
      "name": "mint",
      "inputs": [
        {
          "name": "owner",
          "type": "address",
          "internalType": "address"
        },
        {
          "name": "lowerTick",
          "type": "int24",
          "internalType": "int24"
        },
        {
          "name": "upperTick",
          "type": "int24",
          "internalType": "int24"
        },
        {
          "name": "amount",
          "type": "uint128",
          "internalType": "uint128"
        },
        {
          "name": "data",
          "type": "bytes",
          "internalType": "bytes"
        }
      ],
      "outputs": [
        {
          "name": "amount0",
          "type": "uint256",
          "internalType": "uint256"
        },
        {
          "name": "amount1",
          "type": "uint256",
          "internalType": "uint256"
        }
      ],
      "stateMutability": "nonpayable"
    },
    {
      "type": "function",
      "name": "positions",
      "inputs": [
        {
          "name": "",
          "type": "bytes32",
          "internalType": "bytes32"
        }
      ],
      "outputs": [
        {
          "name": "liquidity",
          "type": "uint128",
          "internalType": "uint128"
        }
      ],
      "stateMutability": "view"
    },
    {
      "type": "function",
      "name": "slot0",
      "inputs": [],
      "outputs": [
        {
          "name": "sqrtPriceX96",
          "type": "uint160",
          "internalType": "uint160"
        },
        {
          "name": "tick",
          "type": "int24",
          "internalType": "int24"
        }
      ],
      "stateMutability": "view"
    },
    {
      "type": "function",
      "name": "swap",
      "inputs": [
        {
          "name": "receipient",
          "type": "address",
          "internalType": "address"
        },
        {
          "name": "data",
          "type": "bytes",
          "internalType": "bytes"
        }
      ],
      "outputs": [
        {
          "name": "amount0",
          "type": "int256",
          "internalType": "int256"
        },
        {
          "name": "amount1",
          "type": "int256",
          "internalType": "int256"
        }
      ],
      "stateMutability": "nonpayable"
    },
    {
      "type": "function",
      "name": "ticks",
      "inputs": [
        {
          "name": "",
          "type": "int24",
          "internalType": "int24"
        }
      ],
      "outputs": [
        {
          "name": "initialized",
          "type": "bool",
          "internalType": "bool"
        },
        {
          "name": "liqudity",
          "type": "uint128",
          "internalType": "uint128"
        }
      ],
      "stateMutability": "view"
    },
    {
      "type": "function",
      "name": "token0",
      "inputs": [],
      "outputs": [
        {
          "name": "",
          "type": "address",
          "internalType": "address"
        }
      ],
      "stateMutability": "view"
    },
    {
      "type": "function",
      "name": "token1",
      "inputs": [],
      "outputs": [
        {
          "name": "",
          "type": "address",
          "internalType": "address"
        }
      ],
      "stateMutability": "view"
    },
    {
      "type": "event",
      "name": "Mint",
      "inputs": [
        {
          "name": "sender",
          "type": "address",
          "indexed": false,
          "internalType": "address"
        },
        {
          "name": "owner",
          "type": "address",
          "indexed": true,
          "internalType": "address"
        },
        {
          "name": "lowerTick",
          "type": "int24",
          "indexed": true,
          "internalType": "int24"
        },
        {
          "name": "upperTick",
          "type": "int24",
          "indexed": true,
          "internalType": "int24"
        },
        {
          "name": "amount",
          "type": "uint128",
          "indexed": false,
          "internalType": "uint128"
        },
        {
          "name": "amount0",
          "type": "uint256",
          "indexed": false,
          "internalType": "uint256"
        },
        {
          "name": "amount1",
          "type": "uint256",
          "indexed": false,
          "internalType": "uint256"
        }
      ],
      "anonymous": false
    },
    {
      "type": "event",
      "name": "Swap",
      "inputs": [
        {
          "name": "sender",
          "type": "address",
          "indexed": true,
          "internalType": "address"
        },
        {
          "name": "receipient",
          "type": "address",
          "indexed": true,
          "internalType": "address"
        },
        {
          "name": "amount0",
          "type": "int256",
          "indexed": false,
          "internalType": "int256"
        },
        {
          "name": "amount1",
          "type": "int256",
          "indexed": false,
          "internalType": "int256"
        },
        {
          "name": "sqrtPriceX96",
          "type": "uint160",
          "indexed": false,
          "internalType": "uint160"
        },
        {
          "name": "liquidity",
          "type": "uint128",
          "indexed": false,
          "internalType": "uint128"
        },
        {
          "name": "tick",
          "type": "int24",
          "indexed": true,
          "internalType": "int24"
        }
      ],
      "anonymous": false
    },
    {
      "type": "error",
      "name": "InsufficientInputAmount",
      "inputs": []
    },
    {
      "type": "error",
      "name": "InvertTickRange",
      "inputs": []
    },
    {
      "type": "error",
      "name": "ZeroLiquidity",
      "inputs": []
    }
  ],
  "bytecode": {
    "object": "0x60c060405234801561001057600080fd5b50604051610c8f380380610c8f83398101604081905261002f916100a0565b6001600160a01b0393841660805291831660a052604080518082019091529216808352600282900b6020909301929092526000805462ffffff909216600160a01b026001600160b81b0319909216909217179055610106565b6001600160a01b038116811461009d57600080fd5b50565b600080600080608085870312156100b657600080fd5b84516100c181610088565b60208601519094506100d281610088565b60408601519093506100e381610088565b8092505060608501518060020b81146100fb57600080fd5b939692955090935050565b60805160a051610b5061013f60003960008181610193015261084a01526000818160920152818161053a01526107b70152610b506000f3fe608060405234801561001057600080fd5b50600436106100885760003560e01c8063514ea4bf1161005b578063514ea4bf14610165578063d21220a71461018e578063e3547335146101b5578063f30dba93146101c857600080fd5b80630dfe16811461008d5780631a686502146100d15780633850c7bd146100fc5780633c8a7d8d1461013d575b600080fd5b6100b47f000000000000000000000000000000000000000000000000000000000000000081565b6040516001600160a01b0390911681526020015b60405180910390f35b6001546100e4906001600160801b031681565b6040516001600160801b0390911681526020016100c8565b60005461011b906001600160a01b03811690600160a01b900460020b82565b604080516001600160a01b03909316835260029190910b6020830152016100c8565b61015061014b3660046108f8565b61021a565b604080519283526020830191909152016100c8565b6100e461017336600461098c565b6003602052600090815260409020546001600160801b031681565b6100b47f000000000000000000000000000000000000000000000000000000000000000081565b6101506101c33660046109a5565b6104e2565b6101fb6101d63660046109f8565b60026020526000908152604090205460ff81169061010090046001600160801b031682565b6040805192151583526001600160801b039091166020830152016100c8565b6000808560020b8760020b1215806102395750620d89e719600288900b125b80610255575061024c620d89e719610a30565b60020b8660020b135b1561027357604051637731b63160e01b815260040160405180910390fd5b846001600160801b031660000361029d57604051630200e8a960e31b815260040160405180910390fd5b6102a9600288876106dd565b6102b5600287876106dd565b6040805160608a901b6bffffffffffffffffffffffff191660208083019190915260e88a811b603484015289901b60378301528251601a818403018152603a90920183528151918101919091206000908152600390915220610317818761075e565b60018054670ddd13f10b84ee00945069010f0cf064dd59200000935087919060009061034d9084906001600160801b0316610a52565b92506101000a8154816001600160801b0302191690836001600160801b0316021790555060008060008511156103885761038561079f565b91505b831561039957610396610832565b90505b60405163d348799760e01b8152339063d3487997906103c290889088908c908c90600401610aa2565b600060405180830381600087803b1580156103dc57600080fd5b505af11580156103f0573d6000803e3d6000fd5b50505050600085118015610413575061040761079f565b6104118684610acc565b115b156104315760405163098fb56160e01b815260040160405180910390fd5b6000841180156104505750610444610832565b61044e8583610acc565b115b1561046e5760405163098fb56160e01b815260040160405180910390fd5b604080513381526001600160801b038a1660208201529081018690526060810185905260028a810b91908c900b906001600160a01b038e16907f7a53080ba414158be7ec69b987b5fb7d07dee101fe85488f0853ae16239d0bde9060800160405180910390a4505050965096945050505050565b600080546001600160b81b03191676014cc00000000000000046bd046408013d67ed5d406b2d179055661dd4c461af3f0b19680246ddf9797668000062014cc06c46bd046408013d67ed5d406b2d6001600160a01b037f00000000000000000000000000000000000000000000000000000000000000001663a9059cbb8861056987610ae5565b6040516001600160e01b031960e085901b1681526001600160a01b0390921660048301526024820152604401600060405180830381600087803b1580156105af57600080fd5b505af11580156105c3573d6000803e3d6000fd5b5050505060006105d1610832565b60405163fa461e3360e01b8152909150339063fa461e33906105fd90889088908c908c90600401610aa2565b600060405180830381600087803b15801561061757600080fd5b505af115801561062b573d6000803e3d6000fd5b50505050610637610832565b6106418583610acc565b11156106605760405163098fb56160e01b815260040160405180910390fd5b60005460015460408051888152602081018890526001600160a01b03808516828401526001600160801b0390931660608201529051600160a01b90930460020b92918b169133917fc42079f94a6350d7e6235f29174924f928cc2ac818eb64fed8004e115fbcca67919081900360800190a4505050935093915050565b600282900b6000908152602084905260408120805490916101009091046001600160801b03169061070e8483610a52565b9050816001600160801b031660000361072d57825460ff191660011783555b82546001600160801b039091166101000270ffffffffffffffffffffffffffffffff00199091161790915550505050565b81546001600160801b031660006107758383610a52565b84546fffffffffffffffffffffffffffffffff19166001600160801b039190911617909355505050565b6040516370a0823160e01b81523060048201526000907f00000000000000000000000000000000000000000000000000000000000000006001600160a01b0316906370a08231906024015b6020604051808303816000875af1158015610809573d6000803e3d6000fd5b505050506040513d601f19601f8201168201806040525081019061082d9190610b01565b905090565b6040516370a0823160e01b81523060048201526000907f00000000000000000000000000000000000000000000000000000000000000006001600160a01b0316906370a08231906024016107ea565b80356001600160a01b038116811461089857600080fd5b919050565b8035600281900b811461089857600080fd5b60008083601f8401126108c157600080fd5b50813567ffffffffffffffff8111156108d957600080fd5b6020830191508360208285010111156108f157600080fd5b9250929050565b60008060008060008060a0878903121561091157600080fd5b61091a87610881565b95506109286020880161089d565b94506109366040880161089d565b935060608701356001600160801b038116811461095257600080fd5b9250608087013567ffffffffffffffff81111561096e57600080fd5b61097a89828a016108af565b979a9699509497509295939492505050565b60006020828403121561099e57600080fd5b5035919050565b6000806000604084860312156109ba57600080fd5b6109c384610881565b9250602084013567ffffffffffffffff8111156109df57600080fd5b6109eb868287016108af565b9497909650939450505050565b600060208284031215610a0a57600080fd5b610a138261089d565b9392505050565b634e487b7160e01b600052601160045260246000fd5b60008160020b627fffff198103610a4957610a49610a1a565b60000392915050565b6001600160801b03818116838216019080821115610a7257610a72610a1a565b5092915050565b81835281816020850137506000828201602090810191909152601f909101601f19169091010190565b848152836020820152606060408201526000610ac2606083018486610a79565b9695505050505050565b80820180821115610adf57610adf610a1a565b92915050565b6000600160ff1b8201610afa57610afa610a1a565b5060000390565b600060208284031215610b1357600080fd5b505191905056fea2646970667358221220bf2cc3bf0823526703e4eac38027e60e1b9088e1707a2806a5cdaf193c2e500c64736f6c63430008190033",
    "linkReferences": {}
  },
  "methodIdentifiers": {
    "liquidity()": "1a686502",
    "mint(address,int24,int24,uint128,bytes)": "3c8a7d8d",
    "positions(bytes32)": "514ea4bf",
    "slot0()": "3850c7bd",
    "swap(address,bytes)": "e3547335",
    "ticks(int24)": "f30dba93",
    "token0()": "0dfe1681",
    "token1()": "d21220a7"
  },
  "id": 22
}